:100000000C9446000C9465000C9465000C946500FB
:100010000C9465000C9465000C9465000C946500CC
:100020000C9465000C9465000C9465000C946500BC
:100030000C9465000C94D9010C9465000C94650037
:100040000C9465000C9465000C9465000C9465009C
:100050000C9465000C9465000C9465000C9465008C
:100060000C9465000C9465000C9465000C9465007C
:100070000C9465000C9465000C9465000C9465006C
:100080000C9465000C9465000C94650011241FBE4F
:10009000CFEFD0E4DEBFCDBF11E0A0E0B1E0EAEAEF
:1000A000F8E000E00BBF02C007900D92A231B1074B
:1000B000D9F721E0A2E1B1E001C01D92A332B2075D
:1000C000E1F70E948F030C9453040C940000CF932B
:1000D000DF93CDB7DEB781E00E948E000000DF9194
:1000E000CF910895CF93DF93CDB7DEB784E690E04C
:1000F0000E94320188E30E948E0086E00E948E00FA
:100100008FE00E948E0081E00E948E008AE090E0E5
:100110000E9432010000DF91CF910895CF93DF93C9
:100120001F92CDB7DEB789838BE290E02BE230E0FF
:10013000F90120812F7BFC01208388E290E0298156
:10014000FC0120838BE290E02BE230E0F90120817A
:100150002068FC01208300008BE290E02BE230E07D
:10016000F90120812F77FC01208382E090E00E943A
:10017000320100000F90DF91CF910895CF93DF936C
:100180001F92CDB7DEB789838BE290E02BE230E09F
:10019000F90120812064FC01208388E290E029811C
:1001A000FC0120838BE290E02BE230E0F90120811A
:1001B0002068FC01208300008BE290E02BE230E01D
:1001C000F90120812F77FC01208381E090E00E94DB
:1001D000320100000F90DF91CF910895CF93DF930C
:1001E00000D000D0CDB7DEB78A837C836B830E94BA
:1001F00067008A81898311C0898191E0980F998372
:100200000E941B018B819C819C012F5F3F4F3C838F
:100210002B83FC0180810E94BE008B819C81FC01AC
:100220008081882349F700000F900F900F900F9066
:10023000DF91CF910895CF93DF931F92CDB7DEB7B3
:1002400089838981813128F4898181580E948E00B7
:1002500004C0898181550E948E0000000F90DF91BB
:10026000CF910895CF93DF9300D000D000D0CDB7C9
:10027000DEB79E838D831A82198213C01C821B8273
:1002800006C000008B819C8101969C838B838B81AF
:100290009C8187309340ACF389819A8101969A833F
:1002A000898329813A818D819E812817390734F30A
:1002B000000026960FB6F894DEBF0FBECDBFDF91CB
:1002C000CF910895CF93DF9300D01F92CDB7DEB7C3
:1002D00089837B836A8389818A3031F48A819B8117
:1002E000BC018DE00E94620180EC90E0FC01808105
:1002F000882F90E080729927892BB1F386EC90E0EB
:100300002981FC01208380E090E00F900F900F90F6
:10031000DF91CF910895CF93DF93CDB7DEB781E81A
:1003200090E02BE0FC01208388E890E02DE730E0AE
:10033000FC01318320838FE690E022E0FC012083E2
:1003400084E890E0FC011182108280910E0190916E
:100350000F01A0911001B0911101809313019093AE
:100360001401A0931501B09316018FE590E02FE5DD
:1003700030E0F90120812068FC0120830000DF913A
:10038000CF910895CF93DF93CDB7DEB781E890E0AA
:10039000FC0110820000DF91CF910895CF93DF938D
:1003A000CDB7DEB781E0809312010000DF91CF91DD
:1003B00008951F920F9200905F000F9211240090F9
:1003C0005B000F922F933F934F935F936F937F93B5
:1003D0008F939F93AF93BF93EF93FF93CF93DF934D
:1003E000CDB7DEB78091130190911401A091150152
:1003F000B09116010197A109B1098093130190935F
:100400001401A0931501B0931601809113019091EE
:100410001401A0911501B0911601892B8A2B8B2B09
:1004200091F40E94CE0180910E0190910F01A09154
:100430001001B09111018093130190931401A093C6
:100440001501B09316010000DF91CF91FF91EF915C
:10045000BF91AF919F918F917F916F915F914F91DC
:100460003F912F910F9000925B000F9000925F00E0
:100470000F901F901895CF93DF9300D000D0CDB789
:10048000DEB769837A838B839C8389819A81AB8170
:10049000BC8180930E0190930F01A0931001B09343
:1004A000110180910E0190910F01A0911001B09166
:1004B00011018093130190931401A0931501B0933F
:1004C000160100000F900F900F900F90DF91CF91C9
:1004D0000895CF93DF93CDB7DEB780911B01909144
:1004E0001C018130910581F08130910530F082301E
:1004F000910589F00397B1F01CC081E090E09093E2
:100500001C0180931B011AC082E090E090931C01B3
:1005100080931B0113C083E090E090931C018093B3
:100520001B010CC081E090E090931C0180931B01A3
:1005300005C010921C0110921B01000080911B014C
:1005400090911C018130910549F08130910590F026
:100550008230910539F0039749F00DC081E0809316
:100560001A0109C082E080931A0105C084E08093DB
:100570001A0101C000000000DF91CF910895CF93D0
:10058000DF93CDB7DEB780912001909121018130BA
:10059000910569F08130910518F0029779F015C046
:1005A00081E090E0909321018093200113C082E0CC
:1005B00090E090932101809320010CC081E090E0B5
:1005C000909321018093200105C010922101109287
:1005D000200100008091200190912101813091053E
:1005E00049F08130910518F0029741F00AC010924D
:1005F0001F0107C088E080931F0103C010921F01F4
:1006000000000000DF91CF910895CF93DF93CDB725
:10061000DEB780911D0190911E0181309105F9F0A6
:100620008130910518F0029741F020C082E090E0FF
:1006300090931E0180931D011EC08091220188238A
:1006400039F081E090E090931E0180931D0113C06A
:1006500082E090E090931E0180931D010CC082E027
:1006600090E090931E0180931D0105C010921E0121
:1006700010921D01000080911D0190911E0181309A
:10068000910549F08130910550F0029709F008C0BA
:100690001092170105C080E18093170101C000008E
:1006A0000000DF91CF910895CF93DF93CDB7DEB7F0
:1006B0008091180190911901009719F0019741F06C
:1006C0000EC081E090E090931901809318010CC056
:1006D00081E090E0909319018093180105C0109279
:1006E00019011092180100008091180190911901D0
:1006F000009781F0019709F00EC085E290E03091FB
:100700001A0120911F01322B20911701232BFC018C
:10071000208301C000000000DF91CF910895CF93A6
:10072000DF93CDB7DEB760970FB6F894DEBF0FBE8C
:10073000CDBF81E290E0FC01108282E290E02FEFD9
:10074000FC01208384E290E02FEFFC01208385E20E
:1007500090E0FC0110828CE291E0A0E0B0E089839F
:100760009A83AB83BC8388EE93E0A0E0B0E08D83F6
:100770009E83AF83B88782E090E0A0E0B0E08987F5
:100780009A87AB87BC8781E090E0A0E0B0E08D87DE
:100790009E87AF87B88B8D859E85AF85B889BC0154
:1007A000CD010E943B020E948B0110921C0110920D
:1007B0001B01109221011092200110921E01109233
:1007C0001D01109219011092180180E290E0FC01C5
:1007D0008081809584708093220189819A81AB8188
:1007E000BC818C329140A105B10530F00E946902B4
:1007F00019821A821B821C828D819E81AF81B885ED
:10080000883E9340A105B10530F00E94BF021D82D1
:100810001E821F82188689859A85AB85BC850297C2
:10082000A105B10530F00E94050319861A861B86C2
:100830001C860E9454030000809112018823E1F37A
:100840001092120129813A814B815C818D859E85B0
:10085000AF85B889820F931FA41FB51F89839A8320
:10086000AB83BC832D813E814F8158858D859E85CC
:10087000AF85B889820F931FA41FB51F8D839E83F8
:10088000AF83B88729853A854B855C858D859E85A4
:10089000AF85B889820F931FA41FB51F89879A87D8
:0A08A000AB87BC8792CFF894FFCF1E
:1008AA0000000002000000006201000000000100D8
:0208BA0000003C
:00000001FF
